:100000000C94DD020C9405030C9405030C94050379
:100010000C9405030C9405030C9405030C94050340
:100020000C9405030C9405030C9405030C94050330
:100030000C9405030C9405030C9405030C94050320
:100040000C94D80A0C9405030C9405030C94050336
:100050000C9405030C9405030C9405030C94050300
:100060000C94220B0C940503000000080002010010
:100070000003040700000000000000000000000072
:10008000003E5B4F5B3E3E6B4F6B3E1C3E7C3E1C1E
:10009000183C7E3C181C577D571C1C5E7F5E1C0064
:1000A000183C1800FFE7C3E7FF0018241800FFE71B
:1000B000DBE7FF30483A060E2629792926407F05DE
:1000C0000507407F05253F5A3CE73C5A7F3E1C1CF4
:1000D00008081C1C3E7F14227F22145F5F005F5FB4
:1000E00006097F017F006689956A606060606094A0
:1000F000A2FFA29408047E040810207E20100808A5
:100100002A1C08081C2A08081E101010100C1E0CAF
:100110001E0C30383E3830060E3E0E060000000041
:100120000000005F00000007000700147F147F1428
:10013000242A7F2A1223130864623649562050006D
:1001400008070300001C2241000041221C002A1C59
:100150007F1C2A08083E0808008070300008080844
:100160000808000060600020100804023E51494564
:100170003E00427F400072494949462141494D3382
:100180001814127F1027454545393C4A49493141E9
:10019000211109073649494936464949291E0000B7
:1001A000140000004034000000081422411414140C
:1001B0001414004122140802015909063E415D59F8
:1001C0004E7C1211127C7F494949363E4141412201
:1001D0007F4141413E7F494949417F090909013E2B
:1001E000414151737F0808087F00417F4100204052
:1001F000413F017F081422417F404040407F021C64
:10020000027F7F0408107F3E4141413E7F0909097A
:10021000063E4151215E7F09192946264949493246
:1002200003017F01033F4040403F1F2040201F3F0C
:100230004038403F63140814630304780403615991
:10024000494D43007F4141410204081020004141D3
:10025000417F04020102044040404040000307087F
:100260000020545478407F2844443838444444287B
:10027000384444287F385454541800087E09021822
:10028000A4A49C787F0804047800447D40002040AA
:10029000403D007F1028440000417F40007C0478EE
:1002A00004787C080404783844444438FC18242436
:1002B0001818242418FC7C080404084854545424B6
:1002C00004043F44243C4040207C1C2040201C3C33
:1002D0004030403C44281028444C9090907C44642A
:1002E000544C4400083641000000770000004136BD
:1002F000080002010204023C2623263C1EA1A16143
:10030000123A4040207A3854545559215555794174
:100310002254547842215554784020545579400C49
:100320001E5272123955555559395454545939552C
:100330005454580000457C410002457D420001456F
:100340007C407D1211127DF0282528F07C54554503
:10035000002054547C547C0A097F4932494949326F
:100360003A4444443A324A4848303A4141217A3A80
:1003700042402078009DA0A07D3D4242423D3D404C
:1003800040403D3C24FF2424487E4943662B2FFCFB
:100390002F2BFF0929F620C0887E090320545479A9
:1003A000410000447D413048484A32384040227A7A
:1003B000007A0A0A727D0D19317D2629292F2826F7
:1003C0002929292630484D402038080808080808FF
:1003D0000808382F10C8ACBA2F102834FA00007B58
:1003E000000008142A142222142A1408550055006B
:1003F00055AA55AA55AAFF55FF55FF000000FF005A
:10040000101010FF00141414FF001010FF00FF1054
:1004100010F010F0141414FC001414F700FF000086
:10042000FF00FF1414F404FC141417101F10101F05
:10043000101F1414141F00101010F0000000001FF3
:10044000101010101F10101010F010000000FF10FE
:100450001010101010101010FF10000000FF1400FA
:1004600000FF00FF00001F10170000FC04F414142C
:100470001710171414F404F40000FF00F7141414F8
:1004800014141414F700F7141414171410101F1078
:100490001F141414F4141010F010F000001F101F9B
:1004A0000000001F14000000FC140000F010F01009
:1004B00010FF10FF141414FF141010101F00000080
:1004C00000F010FFFFFFFFFFF0F0F0F0F0FFFFFF84
:1004D0000000000000FFFF0F0F0F0F0F38444438DB
:1004E00044FC4A4A4A347E02020606027E027E022A
:1004F00063554941633844443C04407E201E200635
:10050000027E020299A5E7A5991C2A492A1C4C7271
:1005100001724C304A4D4D303048784830BC625AF8
:10052000463D3E494949007E0101017E2A2A2A2A88
:100530002A44445F444440514A444040444A514064
:100540000000FF0103E080FF000008086B6B083625
:1005500012362436060F090F060000181800000096
:100560001010003040FF0101001F01011E00191D85
:100570001712003C3C3C3C00000000000000000062
:10058000250028002B0000000000240027002A007E
:100590000404040404040404020202020202030329
:1005A0000303030301020408102040800102040831
:1005B0001020010204081020AE1211241FBECFEF3C
:1005C000D8E0DEBFCDBF15E0A0E0B1E0E0EFF5E29E
:1005D00002C005900D92A638B107D9F726E0A6E82B
:1005E000B5E001C01D92AE37B207E1F712E0CDEDE4
:1005F000D2E004C02197FE010E94EB12CC3DD1074E
:10060000C9F70E9490100C94F6120C940000089503
:100610000895CF92DF92EF92FF920F931F93CF93A3
:10062000DF936C017A018B01C0E0D0E0CE15DF05CD
:1006300081F0D8016D918D01D601ED91FC91019071
:10064000F081E02DC6010995892B11F02196EECF9E
:100650007E01C701DF91CF911F910F91FF90EF9025
:10066000DF90CF9008950F931F93CF93DF93DC011A
:1006700055968C915597823071F0833009F1813015
:1006800009F08CC01496ED91FC911597E41BF50BC5
:10069000E21BF30B20C01496ED91FC911597CF014E
:1006A000861B970BBC01615071091696ED91FC9168
:1006B0001797CF01841B950BAC01421B530B6EC0E7
:1006C0001696ED91FC911797CF01861B970BBC01F5
:1006D00061507109FA0177FD1BC116968D919C91AD
:1006E0001797681779070CF013C1F7FF04C02E0F96
:1006F0003F1FE0E0F0E014968D919C911597AF01BB
:10070000420F531F841795071CF49C012E1B3F0BAF
:10071000121613060CF0FCC0CB0177FD079643E0E0
:10072000959587954A95E1F79695982F88279795FF
:100730008795E80FF91FE050FF4F6770772781E03A
:1007400090E001C0880F6A95EAF7482F0130110543
:1007500041F088F00230110509F0DAC02E0F3F1F7A
:1007600015C02E0F3F1FE217F30709F4D1C0808197
:10077000842B8193F8CF80952E0F3F1FE217F3074C
:1007800009F4C6C0908198239193F8CFE217F3073C
:1007900009F4BEC0808184278193F8CF77FDB8C06B
:1007A00014968D919C911597681779070CF0B0C03D
:1007B00057FF04C0240F351F40E050E016968D917E
:1007C0009C911797FA01E20FF31F8E179F071CF4F5
:1007D0009C01241B350B121613060CF099C0A22F96
:1007E000842F86958695869590E8899F600D711D6A
:1007F0001124FB01E050FF4F4770A9F198E0941BD2
:10080000492F50E0EA01C85FDA4F8881291790F438
:10081000421B51092FEF30E002C0359527954A95CC
:10082000E2F782230130110541F068F00230110532
:1008300089F06EC00130110519F42081822B0CC0A3
:100840000130110520F480952081822305C00230FB
:10085000110531F4208182278083A91708F458C03C
:10086000A91BE058FF4FA83048F10230110559F498
:10087000EF018A2F988190959883C058DF4F885058
:100880008830C0F730C081E00130110509F080E008
:100890008195EF019A2F8883C058DF4F9850983088
:1008A000D0F788EF8A0F86958695869590E8899F80
:1008B000E00DF11D1124E058FF4FA770AA2341F16C
:1008C000B0E0A050BB4F8C910130110529F038F0F9
:1008D00002301105E9F419C09081892B18C0809568
:1008E0009081892314C088EF8A0F86958695869516
:1008F00090E8899FE00DF11D1124E058FF4FA7708B
:1009000039F0B0E0A050BB4F8C9190818927808353
:10091000DF91CF911F910F9108950F931F93CF9364
:10092000DF93DC01FB0155968C915597823089F05D
:10093000833021F1813009F0E7C014968D919C91AC
:100940001597BC01641B750BAB0141505109BF01E8
:100950001DC014966D917C911597CB018E1B9F0B3A
:10096000FC0116968D919C911797BC01641B750B29
:10097000AB0141505109E21BF30BC6C016966D91B5
:100980007C9117976E1B7F0B621B730B57FD1BC16E
:1009900014968D919C911597481759070CF013C127
:1009A00077FF04C0260F371F60E070E016968D9128
:1009B0009C911797FB01E20FF31F8E179F071CF402
:1009C0009C01261B370B121613060CF0FCC0A22F3D
:1009D000862F86958695869590E8899F400D511DB6
:1009E0001124FA01E050FF4F6770A9F198E0961BBF
:1009F000492F50E0EA01C85FDA4F8881291790F447
:100A0000421B51092FEF30E002C0359527954A95DA
:100A1000E2F782230130110541F068F00230110540
:100A200089F0D1C00130110519F42081822B0CC04E
:100A30000130110520F480952081822305C0023009
:100A4000110531F4208182278083A91708F4BBC0E7
:100A5000A91BE058FF4FA83048F10230110559F4A6
:100A6000EF018A2F988190959883C058DF4F885066
:100A70008830C0F733C081E00130110509F080E013
:100A80008195EF019A2F8883C058DF4F9850983096
:100A9000D0F788EF8A0F86958695869560E8869FC1
:100AA000E00DF11D1124E058FF4FA770AA2309F4AF
:100AB0008AC0B0E0A050BB4F8C910130110531F0DD
:100AC00040F00230110509F07EC01BC09081892BD7
:100AD00003C0809590818923808375C088EF8A0F39
:100AE00086958695869570E8879FE00DF11D112407
:100AF000E058FF4FA77009F466C0B0E0A050BB4FAC
:100B00008C9190818927E8CF57FD5DC016968D9115
:100B10009C911797481759070CF055C0F7FF04C070
:100B20002E0F3F1FE0E0F0E014968D919C911597F9
:100B3000BF01620F731F861797071CF49C012E1BC1
:100B40003F0B121613060CF03EC0CA0157FD079664
:100B500063E0959587956A95E1F79695982F882794
:100B600097958795E80FF91FE050FF4F477055277D
:100B700081E090E001C0880F4A95EAF7482F0130E4
:100B8000110539F078F002301105E9F42E0F3F1FFE
:100B900013C02E0F3F1FE217F307A9F08081842BAB
:100BA0008193F9CF80952E0F3F1FE217F30759F07D
:100BB000908198239193F9CFE217F30721F0808178
:100BC00084278193F9CFDF91CF911F910F910895E1
:100BD000FC0177FD9AC080859185681779070CF034
:100BE00094C057FD92C082859385481759070CF031
:100BF0008CC08589823009F07CC084819581DC01BC
:100C0000A61BB70BBD016150710986819781FC015C
:100C1000E41BF50BAF01415051090AC0813041F48A
:100C200084819581841B950BAB01BC0161507109D6
:100C30002130310529F008F122303105E1F1089524
:100C4000FA0157FD3796A3E0F595E795AA95E1F7E8
:100C5000F695FE2FEE27F795E7956E0F7F1FFB01A8
:100C6000E050FF4F4770552781E090E001C0880FAA
:100C70004A95EAF79081892B3AC0FA0157FD3796D9
:100C800023E0F595E7952A95E1F7F695FE2FEE27F7
:100C9000F795E7956E0F7F1FFB01E050FF4F477000
:100CA000552781E090E001C0880F4A95EAF78095CA
:100CB000908189231CC0FA0157FD379683E0F59592
:100CC000E7958A95E1F7F695FE2FEE27F795E795DC
:100CD0006E0F7F1FFB01E050FF4F4770552781E0EB
:100CE00090E001C0880F4A95EAF7908189278083B8
:100CF0000895833009F092CF86819781861B970BE8
:100D0000BA01AC014150510993CF08950895FC01F7
:100D10006370658B8481958126813781613039F0DC
:100D2000633029F091878087338722870895318740
:100D300020879387828708956F927F928F929F92E8
:100D4000AF92BF92CF92DF92EF92FF920F931F93D9
:100D5000CF93DF93EC014B015A0169013801E8811F
:100D6000F9810284F385E02D0995E881F9810288F3
:100D7000F389E02D87019601A501B401CE01099503
:100D8000A501460D571D41505109E881F98102889E
:100D9000F389E02D9601B401CE010995E881F9812E
:100DA0000088F189E02D9301A501B401CE010995D8
:100DB000C80CD91CB60161507109E881F98100881D
:100DC000F189E02D9301A501CE010995E881F98112
:100DD0000688F789E02DCE01DF91CF911F910F9109
:100DE000FF90EF90DF90CF90BF90AF909F908F904B
:100DF0007F906F9009948F929F92AF92BF92CF9203
:100E0000DF92EF92FF920F931F93CF93DF934C01EA
:100E10006B015A01E901DC01ED91FC916217730746
:100E200081F40417150724F48B2D5801042F182F73
:100E30000A191B0998012F5F3F4F048CF58DE02D97
:100E400012C04017510709F52617370724F48D2DD6
:100E50006901C62FD82F9E012C193D092F5F3F4FE6
:100E6000068CF78DE02D8701A501B601C401099517
:100E7000DF91CF911F910F91FF90EF90DF90CF9076
:100E8000BF90AF909F908F9008950284F385E02DDE
:100E90000995D401ED91FC910488F589E02D9E011E
:100EA000A501B601C4010995D401ED91FC91068814
:100EB000F789E02DC401DF91CF911F910F91FF9031
:100EC000EF90DF90CF90BF90AF909F908F9009945C
:100ED000EF92FF920F931F93DC011A960D911C91D4
:100EE0001B9718962D913C911997ED91FC9100A0BC
:100EF000F1A1E02D7B0140E050E060E070E0099559
:100F00001F910F91FF90EF9008954F925F926F9213
:100F10007F928F929F92AF92BF92CF92DF92EF9289
:100F2000FF920F931F93CF93DF936C012B015A0114
:100F300039014801DC01ED91FC910284F385E02D3B
:100F40000995E201640C751CD601ED91FC91C61562
:100F5000D7055CF40088F189E02D87019401A50193
:100F6000BE01C60109952196EFCF0688F789E02DCD
:100F7000C601DF91CF911F910F91FF90EF90DF900D
:100F8000CF90BF90AF909F908F907F906F905F9029
:100F90004F9009948F929F92AF92BF92CF92DF921F
:100FA000EF92FF920F931F93CF93DF93EC015B01BE
:100FB0004A016901E881F9810284F385E02D0995F0
:100FC00095012C0D3D1D21503109E881F9810488DE
:100FD000F589E02D78018401A401B501CE010995C0
:100FE000E881F9810688F789E02DCE01DF91CF9164
:100FF0001F910F91FF90EF90DF90CF90BF90AF9037
:101000009F908F9009948F929F92AF92BF92CF92B0
:10101000DF92EF92FF920F931F93CF93DF93EC0138
:101020005B014A0169017801E881F9810284F38555
:10103000E02D0995C80CD91C860101501109E881E1
:10104000F9810488F589E02D9501A401B501CE014F
:101050000995E881F9810688F789E02DCE01DF91B5
:10106000CF911F910F91FF90EF90DF90CF90BF90A5
:10107000AF909F908F9009940895EF92FF920F93F5
:101080001F93DC01ED91FC9100A0F1A1E02D0995E9
:101090001F910F91FF90EF9008950F931F93DC0124
:1010A000ED91FC91068CF78DE02D09951F910F9124
:1010B00008950F931F93DC01ED91FC91048CF58D45
:1010C000E02D09951F910F910895DC01ED91FC91A0
:1010D0000084F185E02D09942F923F924F925F9208
:1010E0006F927F928F929F92AF92BF92CF92DF9238
:1010F000EF92FF920F931F93CF93DF9300D000D016
:1011000000D0CDB7DEB72C017E836D836A01590113
:10111000C801FC82EB824801841A950A97FE03C03D
:1011200091948194910835012D813E81621A730A50
:1011300077FE03C0719461947108681479045CF4BB
:101140003A2D2B2D5C01832F922F3D812E81DE8243
:10115000CD82C32ED22EAD81BE81AA16BB065CF411
:101160003C2D2D2D6C01832F922F3D812E81BE822F
:10117000AD82A32EB22E85012D813E81021B130B61
:101180001C012C183D0837FE03C03194219431080E
:10119000780117FF03C03FEFE31AF30AF594E794D1
:1011A000C816D9062CF08FEF9FEF9A83898304C06D
:1011B000A1E0B0E0BA83A9832D813E81A216B306D7
:1011C00024F1D201ED91FC910484F585E02D2B8171
:1011D0003C816814790424F44D815E81B60103C01A
:1011E000A6016D817E81C2010995E218F308F7FE20
:1011F00006C029813A81C20ED31EE00EF11E8D81F8
:101200009E8101969E838D83D7CF26960FB6F89444
:10121000DEBF0FBECDBFDF91CF911F910F91FF9029
:10122000EF90DF90CF90BF90AF909F908F907F9086
:101230006F905F904F903F902F90089585ED809331
:10124000BC008091BC0084FDFCCF10921F06089565
:101250004091C605262F30E0240F311D2132310583
:10126000DCF420911F062430C9F4FC0180E090E0FA
:10127000861758F43091C6052191DC01AA55BA4F62
:10128000A30FB11D2C930196F3CF8091C605680F73
:101290006093C60580E0089581E0089582E0089596
:1012A000E091EE058091ED05E81730F4F0E0EA57A3
:1012B000FA4F808190E008958FEF9FEF089590910D
:1012C000EE058091ED05981750F4E92FF0E0EA570C
:1012D000FA4F208130E09F5F9093EE0502C02FEF20
:1012E0003FEFC90108958091ED0590E02091EE0552
:1012F000821B91090895CF92DF92EF92FF920F9394
:101300001F93CF93DF937C01CB018A0120912006AC
:10131000222389F0EB016B01C40ED51ECC15DD052F
:1013200069F06991D701ED91FC910190F081E02D78
:10133000C7010995F3CF642F0E942809C801DF91E6
:10134000CF911F910F91FF90EF90DF90CF90089574
:10135000CF93DF931F92CDB7DEB76983209120062C
:101360002223D1F020914206203240F021E030E0EB
:10137000FC013383228380E090E015C08091210638
:10138000E82FF0E0EE5DF94F998190838F5F8093B5
:1013900021068093420605C061E0CE0101960E94BD
:1013A000280981E090E00F90DF91CF910895089592
:1013B00080E090E008950E94F112AF92BF92CF9228
:1013C000EF92FF920F931F93CF93DF93EC01262FA1
:1013D000888D998D009709F040C06A3059F41D86B8
:1013E0001C862C898E859F8538E0239F800D911D5A
:1013F000112441C06D3009F4AAC08E898823C1F040
:101400003C898C859D8546E0349F800D911D11247B
:1014100048855985481759075CF41D861C868E85BA
:101420009F8548E0349F800D911D11249F878E87F2
:10143000EA88FB88088919894E855F856C857D85DA
:10144000CC88CE010E94EF0D2C898C859D8536E0DD
:10145000239F800D911D112442C06A3079F41D86AE
:101460001C862C89FC013696E4918E859F852E9FE3
:10147000800D911D11249F878E8769C06D3009F4FE
:1014800066C0FC0134963491631708F460C031964D
:10149000E491E61708F45BC0FC0132966591749103
:1014A000422F50E0431B510937E0349F5001359FD4
:1014B000B00C1124A60EB71EF50132963491319668
:1014C000E491332311F0E1110DC0F5013496E4915C
:1014D0002C898C859D85E29F800D911D11249D870F
:1014E0008C8735C0F501359644915E89552311F1FD
:1014F0006C89E32FF0E0E40FF11D47FDFA956E9F34
:10150000D0016F9FB00D11244C855D854A0F5B1F84
:10151000E885F985E417F5076CF41D861C86FC0147
:101520003696E4918E859F856E9F800D911D1124C6
:101530009F878E87EA88FB88088919894E855F8591
:101540006C857D85CC88CE010E94EF0DBECF81E0F9
:1015500090E0DF91CF911F910F91FF90EF90CF908E
:10156000BF90AF9008953FB7F8948091F5059091A2
:10157000F605A091F705B091F80526B5A89B05C022
:101580002F3F19F00196A11DB11D3FBFBA2FA92F02
:10159000982F8827820F911DA11DB11DBC01CD017F
:1015A00042E0660F771F881F991F4A95D1F708956B
:1015B0001F920F920FB60F9211242F933F938F9388
:1015C0009F93AF93BF938091F1059091F205A09105
:1015D000F305B091F4053091F00523E0230F2D378A
:1015E00020F40196A11DB11D05C026E8230F029627
:1015F000A11DB11D2093F0058093F1059093F20594
:10160000A093F305B093F4058091F5059091F6054C
:10161000A091F705B091F8050196A11DB11D809329
:10162000F5059093F605A093F705B093F805BF91E3
:10163000AF919F918F913F912F910F900FBE0F907F
:101640001F9018951F920F920FB60F9211242F938F
:101650003F934F935F936F937F938F939F93AF933A
:10166000BF93EF93FF938091B900887F803609F490
:101670009CC068F5883209F45BC090F4803109F4AD
:1016800054C038F4882309F4F6C0883009F44DC0FA
:10169000F6C0883109F44CC0803209F45DC0EFC057
:1016A000803409F468C048F4803309F455C08833A5
:1016B00009F0E5C080931D06D8C0803509F44FC0FD
:1016C000883509F45DC0883409F0D9C0D6C088399E
:1016D00009F4C7C0A8F4883709F467C038F488361D
:1016E00009F463C0803709F460C0C9C0883809F4C0
:1016F000B8C0803909F45FC0803809F0C0C05BC051
:10170000803B09F486C038F4803A09F466C0883A10
:1017100009F47FC0B4C0803C09F4A7C0883C09F438
:10172000A4C0883B09F48AC0AAC08091FA0510C001
:1017300090911C0680911B06981770F5E0911C068D
:1017400081E08E0F80931C06F0E0E550FA4F808117
:101750008093BB0085EC86C080931D068EC0E0910F
:101760001C0681E08E0F80931C068091BB00F0E088
:10177000E550FA4F808390911C0680911B066EC045
:10178000E0911C0681E08E0F80931C068091BB00C7
:10179000F0E0E550FA4F808380911E0681116DC004
:1017A00081E08093F90584EA61C083E080931F069D
:1017B0001092E805CFCF8091E805803208F051C043
:1017C000E091E80581E08E0F8093E8058091BB00F1
:1017D000F0E0E853FA4F8083BDCF85EC8093BC00E6
:1017E00010921F068091E805803230F4E091E80500
:1017F000F0E0E853FA4F10826091E80570E0E09164
:10180000E905F091EA0588EC95E009951092E80564
:1018100036C084E080931F061092C7051092C6055B
:10182000E091EB05F091EC0509958091C6058111D9
:1018300005C081E08093C6051092A605E091C7051A
:1018400081E08E0F8093C705F0E0EA55FA4F808162
:101850008093BB009091C7058091C605981708F446
:1018600079CF85E88093BC000AC085EC8093BC00EA
:1018700010921F0604C010921D060E941E09FF91BF
:10188000EF91BF91AF919F918F917F916F915F91F8
:101890004F913F912F910F900FBE0F901F90189571
:1018A00030914206313208F04BC080911F06811101
:1018B000FCCF90917D0622E020931F0621E020932B
:1018C0001E062FEF20931D0610921C0630931B0658
:1018D000E2E2F6E0ABEFB5E020E0321721F0419113
:1018E0004D932F5FFACF1092FA052091FA05990FC8
:1018F000922B9093FA059091F905913061F4109232
:10190000F9059091FA059093BB009091BC0093FD6E
:10191000F8CF95EC01C095EE9093BC0090911F0616
:101920009230E1F390911D069F3F79F080911D0662
:10193000803241F080911D06803331F084E005C093
:1019400081E003C082E001C083E010922106109282
:10195000420610922006089590917006992339F05E
:101960008EBD00000DB407FEFDCF8EB5089528E0B2
:1019700030E040E8E0917306F09174065081909158
:101980007A06909595239083E0917106F091720606
:1019900090917906582F542319F05081952B03C04C
:1019A0005081909595239083E0917306F091740691
:1019B000508190917A06952B90834695215031095C
:1019C000C9F6089580E094E0E0E0F1E0DF019C01D9
:1019D0001D9221503040E1F70895CF93C82F809198
:1019E0006B068F3F59F1E0917506F0917606908174
:1019F00080917B06892B8083E0917706F0917806B1
:101A0000908180917C06809589238083E091750682
:101A1000F0917606908180917B0680958923808362
:101A20008C2F0E94AC0CE0917506F09176069081A7
:101A300080917B06892B8083CF91089580916906E0
:101A400091E09093200680937D06109221061092DB
:101A5000420660E083E496E00E94A8096C2F83E4CC
:101A600096E00E94A809CF910C94500C90E0FC01E4
:101A7000EC55FA4F2491FC01E057FA4F84918823EA
:101A800099F090E0880F991FFC01EA57FA4FA59151
:101A9000B491FC01E458FA4F859194918FB7F89472
:101AA000EC91E22BEC938FBF0895BF92CF92DF921F
:101AB000EF92FF920F931F93CF93DF9381E20E94E7
:101AC000ED0C80E00E94ED0C8FE70E94ED0C82E2AD
:101AD0000E94ED0C80E00E94ED0C87E00E94ED0C6E
:101AE00080916B068F3F81F1E0917506F09176064B
:101AF000908180917B06892B8083E0917706F0911D
:101B00007806908180917C06892B8083E091750610
:101B1000F0917606908180917B0680958923808361
:101B2000C0E0D1E000E015E089910E94AC0C0C17F8
:101B30001D07D1F7E0917506F091760690818091AE
:101B40007B06892B80832FC00091B8008CE08093A6
:101B5000B800C0E0D1E080E0C82E85E0D82EBB24DC
:101B6000B39480916906B092200680937D0610920E
:101B700021061092420660E483E496E00E94A809E0
:101B80007E0110E1F70161917F0183E496E00E94FC
:101B9000A8091150B9F70E94500C6096CC16DD06CA
:101BA00001F70093B800DF91CF911F910F91FF9043
:101BB000EF90DF90CF90BF900895009769F0FC01FF
:101BC00001900020E9F73197AF01481B590BBC0188
:101BD0008FE496E00C94090380E090E008952F9242
:101BE0003F924F925F926F927F928F929F92AF92AD
:101BF000BF92CF92DF92EF92FF920F931F93CF93FA
:101C0000DF93CDB7DEB76B970FB6F894DEBF0FBE8C
:101C1000CDBF9B8F8A8F5B011A01D22E1F830E834B
:101C20003701C982DC0158962D913C9159972115B5
:101C3000310509F0E6C018968D919C9119976817A7
:101C400079070CF0CDC11A968D919C911B9748177E
:101C500059070CF0C5C18C2C912CFB0126E0C29ECB
:101C6000E00DF11D1124FB87EA871E161F060CF0FC
:101C7000B7C1A40183E0440F551F8A95E1F75D8742
:101C80004C87CA01820D931D181619060CF0A8C1C5
:101C900057968C91811104C05FEA5D1508F4D394C6
:101CA000AA8DBB8DED91FC9111970284F385E02DF7
:101CB000CD010995B5E0DB9EC0011124F5013596F3
:101CC000FF87EE87BB82AA8225019C012A193B0966
:101CD000398B288BA101485F5F4F5B8B4A8BE8896A
:101CE000F989E40DF51DE458FF4F549158876101BF
:101CF0003D822C82888580FF13C0AA8DBB8DED911B
:101D0000FC91B981B13031F40484F585E02D2E8148
:101D10003F8116C00684F785E02DEE80FF801AC053
:101D2000EE81FF81E615F705F1F0AA8DBB8DED91EF
:101D3000FC91B981B13051F40484F585E02D930113
:101D4000A601B2018A8D9B8D09950DC00684F78589
:101D5000E02D7301840194014C815D816A817B8156
:101D60008A8D9B8D0995E885E695E887FFEFCF1A68
:101D7000DF0A2C813D81280D391D3D832C834A8942
:101D80005B89C416D50609F0B5CF5FEF451A550A31
:101D90008A819B81880D991D9B838A83AE85BF852F
:101DA0004A165B0609F09BCFEE81FF81E615F70529
:101DB00009F4F4C0EA8DFB8DA081B181F981F13085
:101DC00079F4B5016B5F7F4F5096ED91FC9151977F
:101DD000830128E030E0A1018A8D9B8D0995DEC04A
:101DE0006A857B85681979091E96ED91FC911F978C
:101DF00073010C851D859401A1018A8D9B8D099528
:101E0000CDC0F9013496E491DE1AF901329685913C
:101E10009491B7E0DB9E800D911D1124F90125916D
:101E200034913B8B2A8BFC01259134912901FC01D3
:101E30003296C490319634913E8732961491319601
:101E4000D4904981423058F0612E012E000C770861
:101E50008D2D0D2C000C990B9987888704C019864D
:101E60001886612C712CAA8DBB8DED91FC91119778
:101E70000284F385E02DCD010995B9818B2E912C3B
:101E8000689CC001699C900D789C900D1124FC0108
:101E9000EA0DFB1DFD87EC871A82712C612CE12F66
:101EA000110FFF0B95012E0F3F1F3B872A87AC0CAC
:101EB000B11CA5014E0F5F1F5F8B4E8BC1018D0DB5
:101EC000911DD7FC9A95998F888F9E85691608F089
:101ED00065C0862D90E048855985480F591F489D5B
:101EE0009001499D300D589D300D1124D101A20F54
:101EF000B31FB98BA88BEC85FD85FD83EC83AA8489
:101F0000BB84DA80FA85DF1A288D398D280F391FB6
:101F10003D8B2C8B8D2D8A0D4E895F89A416B506BD
:101F2000C1F1877041F4C2010196EA89FB89E40D91
:101F3000F51D74902C0177FE21C0AA8DBB8DED910B
:101F4000FC91B981B13061F40484F585E02D2E81D6
:101F50003F814C895D89B5018A8D9B8D09950EC0A5
:101F60000684F785E02DEE80FF8084019401488986
:101F700059896C817D818A8D9B8D0995770CEFEF56
:101F8000AE1ABE0A2C813D81280D391D3D832C835C
:101F9000C1CF3A813C0D3A83639497CFAA8DBB8D14
:101FA000ED91FC9111970688F789E02DCD016B9694
:101FB0000FB6F894DEBF0FBECDBFDF91CF911F915A
:101FC0000F91FF90EF90DF90CF90BF90AF909F90D8
:101FD0008F907F906F905F904F903F902F900994DB
:101FE0006B960FB6F894DEBF0FBECDBFDF91CF91D9
:101FF0001F910F91FF90EF90DF90CF90BF90AF9027
:102000009F908F907F906F905F904F903F902F9018
:10201000089590E0FC01E859FF4F2491FC01EC5534
:10202000FA4F3491FC01E057FA4FE491EE2309F4A2
:102030003CC0222339F1233091F038F42130A9F04B
:10204000223001F584B58F7D12C0273091F0283001
:10205000A1F02430B9F4809180008F7D03C080917D
:1020600080008F77809380000DC084B58F7784BD0A
:1020700009C08091B0008F7703C08091B0008F7D40
:102080008093B000F0E0EE0FFF1FE458FA4FA591E7
:10209000B4919FB7F894611104C08C9130953823A6
:1020A00002C0EC913E2B3C939FBF08958F929F926C
:1020B000AF92BF92CF92DF92EF92FF926B017C01C1
:1020C0000E94B30A4B015C01C114D104E104F10484
:1020D000F1F00E94B30ADC01CB0188199909AA0921
:1020E000BB09883E9340A105B10570F321E0C21AF7
:1020F000D108E108F10888EE880E83E0981EA11C43
:10210000B11CC114D104E104F10419F7DDCFFF9033
:10211000EF90DF90CF90BF90AF909F908F900895F9
:10212000789484B5826084BD84B5816084BD85B5B2
:10213000826085BD85B5816085BD80916E008160BE
:1021400080936E0010928100809181008260809364
:102150008100809181008160809381008091800066
:102160008160809380008091B10084608093B10091
:102170008091B00081608093B00080917A0084608B
:1021800080937A0080917A00826080937A008091B7
:102190007A00816080937A0080917A0080688093D1
:1021A0007A001092C10082E080936A068DE38093EA
:1021B000690680916B068F3F09F4B6C080916D0669
:1021C0000E94360D80916F060E94360D80916F0639
:1021D000082E000C990BFC01E057FA4FE491F0E057
:1021E000EE0FFF1FE458FA4F259134913093760695
:1021F00020937506FC01EC55FA4FE491E0937B06C1
:1022000080916D06082E000C990BFC01E057FA4FE7
:10221000E491F0E0EE0FFF1FE458FA4F259134915E
:102220003093780620937706FC01EC55FA4FE49141
:10223000E0937C068091700681113CC080916B0612
:102240000E94360D80916C060E94360D80916C06BE
:10225000082E000C990BFC01E057FA4FE491F0E0D6
:10226000EE0FFF1FE458FA4F259134913093740616
:1022700020937306FC01EC55FA4FE491E0937A0643
:1022800080916B06082E000C990BFC01E057FA4F69
:10229000E491F0E0EE0FFF1FE458FA4F25913491DE
:1022A0003093720620937106FC01EC55FA4FE491CD
:1022B000E093790680917006882309F468C0CFB74F
:1022C000F8948091EF05811124C0EAE9F5E084914A
:1022D000EEEAF5E09491E82FF0E0EE0FFF1FEA57E9
:1022E000FA4FA591B491EC91E92321F461E08AE0E1
:1022F0000E9409108AE00E94360D8CB580618CBD69
:102300008CB580648CBD8DE00E94360D8BE00E9400
:10231000360D8091EF058F5F8093EF05CFBF80E58D
:102320008CBD81E08DBD33C01092EE051092ED059D
:10233000109221061092420610921F0681E08093AF
:102340001E061092F90561E082E10E94091061E029
:1023500083E10E9409108091B9008E7F8093B900BB
:102360008091B9008D7F8093B90088E48093B80094
:1023700085E48093BC0087E093E09093EC05809324
:10238000EB0588E093E09093EA058093E90580915E
:102390006E0687FD1DC00E94360D61E080916E06BD
:1023A0000E94091061E070E080E090E00E94561009
:1023B00060E080916E060E9409106AE070E080E0A3
:1023C00090E00E94561061E080916E060E94091014
:1023D0008EEA0E94ED0C85ED0E94ED0C80E80E94D3
:1023E000ED0C88EA0E94ED0C8FE30E94ED0C83ED6A
:1023F0000E94ED0C80E00E94ED0C80E40E94ED0C48
:102400008DE80E94ED0C84E10E94ED0C80E20E94B8
:10241000ED0C80E00E94ED0C81EA0E94ED0C88EC4E
:102420000E94ED0C8AED0E94ED0C82E10E94ED0C01
:1024300081E80E94ED0C8FEC0E94ED0C89ED0E946A
:10244000ED0C81EF0E94ED0C8BED0E94ED0C80E411
:102450000E94ED0C84EA0E94ED0C86EA0E94ED0CCD
:102460008EE20E94ED0C8FEA0E94ED0C81E090E07C
:1024700090936206809361069093600680935F0656
:10248000809363060E94E20C80E0E82E80E0F82E44
:10249000CAE0D0E000E210E095E2C92ED12CD09342
:1024A0005C06C0935B06D0935E06C0935D068EE427
:1024B00095E00E94DD0D0E94550D68EC70E080E013
:1024C00090E00E9456100E94E20C10935C0600936C
:1024D0005B06D0935E06C0935D0682E695E00E949F
:1024E000DD0D0E94550D68EC70E080E090E00E94E8
:1024F00056100E94E20CD0925C06C0925B06D0930C
:102500005E06C0935D068EE695E00E94DD0D0E949A
:10251000550D68EC70E080E090E00E9456100E943B
:10252000E20C10935C0600935B06D0935E06C093AA
:102530005D0688E795E00E94DD0D0E94550D68EC70
:1025400070E080E090E00E9456100E94E20CE114DE
:10255000F10409F4A4CF0E940000A1CFE3E4F6E067
:102560001382128288EE93E0A0E0B0E0848395832A
:10257000A683B78384E195E091838083EFE4F6E05E
:102580001382128220E830E03583248380E490E0D7
:10259000978386833187208793878287158A15865C
:1025A00014861786168681E0848B2FEF3FEF338BDE
:1025B000228B318B208B868B178A118E108E86E2B0
:1025C00095E0918380838FEF848F80A3868F858FA2
:1025D00084E0878F0895EE0FFF1F0590F491E02DA2
:1025E000099481E090E0F8940C94F612F894FFCFEF
:1025F00000000000000000000000000000000000DB
:1026000000000000000000000000000000000000CA
:1026100000000000000000000000000000000000BA
:10262000000000000000000000000000000000802A
:10263000808000000000000000000000000000009A
:10264000008080C0C000000000000000000000000A
:10265000000000000000000000000000000000007A
:10266000000000000000000000000000000000006A
:10267000000000000000000000000000000000005A
:102680000000000080C0E0F0F8FCF8E0000000006E
:1026900000000000000000000000000000808080BA
:1026A000808000808000000000808080808000FFAB
:1026B000FFFF00000000808080800000808000001C
:1026C00080FFFF808000808000808080800080808C
:1026D0000000000000808000008C8E84000080F8E4
:1026E000F8F880000000000000000000000000007A
:1026F000F0F0F0F0F0F0F0F0F0F0F0F0E0E0C0809A
:1027000000E0FCFEFFFFFF7FFFFFFFFFFF00000078
:102710000000000000000000000000FEFFC70101F3
:10272000010183FFFF00007CFEC70101010183FF5F
:10273000FFFF0038FEC78301010183C7FFFF0000D0
:1027400001FFFF010100FFFF0701010100007FFF02
:1027500080000000FFFF7F0000FFFFFF000001FF7F
:10276000FFFF01000000000000000000000000006A
:10277000030F3F7F7FFFFFFFFFFFFFFFE7C7C78F0D
:102780008F9FBFFFFFC3C0F0FFFFFFFFFFFCFCFCFC
:10279000FCFCFCFCFCF8F8F0F0E0C00001030303D3
:1027A000030301030300000000010303030301010D
:1027B0000301000000010303030301010303000000
:1027C00000030300000003030000000000000001FC
:1027D00003030303030100000001030100000003E1
:1027E00003010000000000000000000000000000E5
:1027F00000000080C0E0F0F9FFFFFFFFFF3F1F0F68
:1028000087C7F7FFFF1F1F3DFCF8F8F8F87C7DFF36
:10281000FFFFFFFFFFFFFF7F3F0F0700303000008B
:1028200000000000000000000000000000000000A8
:1028300000000000FEFEFC000000000000000000A0
:1028400000000000000000000000000000E0C000E8
:102850000000000000000000000030300000000018
:102860000000000000000000000000000000000068
:1028700000C0FEFFFFFFFFFFFFFFFFFF7F7F3F1F47
:102880000F071F7FFFFFF8F8FFFFFFFFFFFEF8E0D5
:10289000000000010000000000000000FEFE00003B
:1028A00000FCFEFC0C06060EFCF80000F0F81C0E06
:1028B0000606060CFFFFFF0000FEFE00000000FC05
:1028C000FEFC00183C7E66E6CE84000006FFFF0694
:1028D00006FCFEFC0C0606060000FEFE0000C0F82A
:1028E000FC4E4646464E7C7840183C76E6CECC8080
:1028F00000000000000000000000000000000000D8
:102900000000000001070F1F1F3F3F3F3F1F0F0345
:102910000000000000000000000000000F0F000099
:10292000000F0F0F000000000F0F000003070E0C38
:1029300018180C060F0F0F0000010F0E0C180C0FCB
:10294000070100040E0C180C0F070000000F0F0009
:10295000000F0F0F0000000000000F0F0000000725
:10296000070C0C181C0C060600040E0C180C0F07A4
:102970000000000000000000000000000000000057
:102980000000000000000000000000000000000047
:102990000000000000000000000000000000000037
:1029A0000000000000000000000000000000000027
:1029B0000000000000000000000000000000000017
:1029C0000000000000000000000000000000000007
:1029D00000000000000000000000000000000000F7
:1029E00000000000000000000000000000000000E7
:1029F000000103070F1F3F7F0080C0E0F0F8FCFEDE
:102A000000000000A8097B09D8093C0873095F0988
:102A1000500900000000DD090903D809D709E805BD
:102A20003C0865083D0859084D086C083C088706B5
:102A3000860633038D0485076807FB069C06412044
:102A40004D617374657257616C6B65722053686F6A
:102A500070007365207072656F6375706100636FDD
:102A60006D206F2073657500617072656E64697AA0
:062A700061646F2100000B
:00000001FF
